:020000040000FA
:0600000064008B014A2898
:08000800052809008200000038
:1000100008002E343534203400342E34303420346B
:100020002034203400342E3431343234353420340A
:1000300000342E34323435342034203400342E341D
:10004000333437343534203400342E3435342034CE
:100050002034203400342E343634323435342034D5
:1000600000342E34373435342034203400342E34E8
:1000700038343734353420340034743468346534DB
:1000800072346D346F346D34653474346534723465
:100090002034003407309900CE2085018516903039
:1000A000B1000B2292309230B1000B228E20003032
:1000B000E522C2000930E522C3009030B1001822C9
:1000C0000130E522C2000A30E522C3009230B100BF
:1000D0001822DD20640064009030B100EB218B21F8
:1000E00064000030E522C20061210930E522C3002E
:1000F00056219230B100EB218B2164000130E522C2
:10010000C20061210A30E522C3005621DD206B28A0
:10011000C830BE00ED20BE0B8A286B281E30BC0004
:100120004F30BD00BC0B9528BD0B922897280000CE
:100130000800AC002C080620FF3903190828A42069
:10014000AC0A9A280F39303EAB002521003420300C
:10015000A800A001A101A201A301A401A501A6017B
:10016000A701203084000830A900333080078019AF
:10017000F039801B0F398002840AA90BB528B70D0E
:10018000B60DB50DB40DA70DA60DA50DA40DA30DAF
:10019000A20DA10DA00DA80BB128080083160030F8
:1001A0008100811400000115000001140000811578
:1001B000FF2390008512831208000D3025210A309C
:1001C00025290D302529B800380EE72038080F39C9
:1001D000F63E031CEC28073E3A3EA530BC00013039
:1001E000BD00BC0BF428BD0BF12808001F30BC007B
:1001F0008516000000000000000000000000000064
:100200000000000000000000851200000000000057
:1002100000000000000000000000000000000000DE
:10022000BC0BF8288516000000000000000000004C
:100230000000000000000000000000008512000027
:1002400000000000000000000800B9000830BA00FB
:100250003B103B18ED203B1CF620B90C031832294B
:100260003B1033293B14BA0B29293B18ED203B1CCA
:10027000F620ED20ED200800BF0085120830C000F8
:100280004D213F1885163F1C8512BF0C4D21C00B18
:10029000412985164D214D2108004130C1005329C7
:1002A0001830C1005329C10B5329080048302521BB
:1002B000B401B501B6014308B700B713C31F7629CF
:1002C0006B2954302521B401B501B6014208B700AD
:1002D000B713C21F76293708B701B703B70237082B
:1002E0007F39B7002D30B000A42078292030B0002D
:1002F000A72026080F39031980292608A22084295F
:10030000270E0F3903198629270EA2202708A220BD
:10031000203025210800B401B501B6012E08B70030
:10032000B713AE1F9E293708B701B703B7023708C6
:100330007F39B7002D30B000A4209F292030A7209E
:1003400026080F390319A7292608A220AB29270E52
:100350000F390319AD29270EA2202708A220031068
:10036000AF0CAF0CAF0CAF0CAF0C2F08AE1FBF29FA
:100370002F08AF01AF03AF022F080739AF000730D6
:100380002F020319E92906302F020319E729053046
:100390002F020319E52904302F020319E329033042
:1003A0002F020319E12902302F020319DF2901303E
:1003B0002F020319DD290D3099281330992819309F
:1003C00099281F309928253099282B3099283130C9
:1003D000992837309928B72200000000D32231082D
:1003E0007D2200307D227422D322310801387D2203
:1003F000A122AE006122AF0074220800D32231088E
:100400007D2201307D2201307D22000000000000AD
:10041000000074220800D32231087D2201307D22A1
:1004200004307D220000000000000000742208005B
:10043000B72200000000D32231087D2203307D2244
:1004400042087D2200307D227422D32231087D2291
:1004500002307D2243087D2200307D227422080074
:10046000000000000000000000000000000000008C
:100470000800B2000830B300831605113022851041
:1004800083120511B20D0318051530228514302290
:100490008510B30B412A0800B2010830B30083165F
:1004A000051583123022031005190314B20D8514AB
:1004B00030228510B30B522A32088316051183129D
:1004C00008004C228316051183120515302285146D
:1004D000831685148312851C6B2A8316851083125C
:1004E0008510302205110800831605113022851071
:1004F0008312851430220515080039220515302293
:100500008514831685148312851C842A831685100E
:10051000831285103022051108003922051130227E
:10052000851030220511302285148316851483121C
:10053000851C982A83168510831285103022051198
:1005400008004C22831605113022851083120511F4
:10055000302285143022831685148312851CAE2A1E
:10056000831685108312851030220511080083162A
:10057000051500008510831285140930B200302261
:10058000851030228514B20BBF2A3022D3223022AC
:100590008514302285103022742283160511000044
:1005A0008510831208008316051500008514831238
:1005B000851CD32A051DD32A8316051130228510E8
:1005C0008312051130228510080083169B001C142D
:1005D0001A088312080083161C1555309D00AA3096
:0C05E0009D009C149C18F22A8312080055
:0207FE004B347A
:02400E00CC3FA5
:104200001C0002000300040005000600070008006F
:10421000FF001C0002000300040005000600070068
:044220000800FF0093
:00000001FF
