:020000040000FA
:0600000064008B014A2898
:08000800052809008200000038
:1000100008002E343534203400342E34303420346B
:100020002034203400342E3431343234353420340A
:1000300000342E34323435342034203400342E341D
:10004000333437343534203400342E3435342034CE
:100050002034203400342E343634323435342034D5
:1000600000342E34373435342034203400342E34E8
:1000700038343734353420340034743468346534DB
:1000800072346D346F346D34653474346534723465
:1000900020340034073099003321850185169030D3
:1000A000B10074229230B1007422F3208B204621DB
:1000B000640064009030B1005422F42164000030E8
:1000C0004E23C200CA2109304E23C300BF21923003
:1000D000B1005422F421640001304E23C200CA2131
:1000E0000A304E23C300BF21C52041308E21450870
:1000F000E62042308E214608E620C508031DBD20BB
:10010000C608031D9E2046215928C830BE0056212E
:10011000BE0B8728592800304E23C20009304E23D9
:10012000C3009030B100812201304E23C2000A305A
:100130004E23C3009230B1008122080041308E214D
:1001400000304E23C200C21BA728C203AF28FF3ACB
:10015000C200C20AC20A4208FF3AC200C20A003004
:1001600083169B00831242085423093083169B0098
:100170008312420854238B20080042308E21003025
:100180004E23C200C20AAF2808008316051283124C
:100190000512F320831605168312D8208316051244
:1001A00083120516F320831605168312DF2008003C
:1001B000C501C50FDC28DE28051ED9280800C601A8
:1001C000C60FE328E528051AE0280800B401B501A8
:1001D000B601B7000C21260E26080721270E07219D
:1001E0002708072108001E30BC004F30BD00BC0BA3
:1001F000FA28BD0BF728FC2800000800AC002C08EA
:100200000620FF39031908280921AC0AFF280F39F5
:10021000303EAB008E2100342030A800A001A101A7
:10022000A201A301A401A501A601A7012030840019
:100230000830A900333080078019F039801B0F394E
:100240008002840AA90B1A29B70DB60DB50DB40D9D
:10025000A70DA60DA50DA40DA30DA20DA10DA00D1A
:10026000A80B1629080083160030810081140000B5
:1002700001150000011400008115FF239000851274
:100280000000951200001512831208000D308E2117
:100290000A308E290D308E29B800380E50213808CA
:1002A0000F39F63E031C5529073E3A3EA530BC00E7
:1002B0000130BD00BC0B5D29BD0B5A2908001F3061
:1002C000BC008516000000000000000000000000D7
:1002D0000000000000000000000085120000000087
:1002E000000000000000000000000000000000000E
:1002F0000000BC0B61298516000000000000000012
:100300000000000000000000000000000000851256
:10031000000000000000000000000800B9000830E4
:10032000BA003B103B1856213B1C5F21B90C031847
:100330009B293B109C293B14BA0B92293B18562150
:100340003B1C5F21562156210800BF008512083052
:10035000C000B6213F1885163F1C8512BF0CB62180
:10036000C00BAA298516B621B62108004130C1006C
:10037000BC291830C100BC29C10BBC290800483079
:100380008E21B401B501B6014308B700B713C31FEE
:10039000DF29D42954308E21B401B501B6014208B9
:1003A000B700B713C21FDF293708B701B703B70279
:1003B00037087F39B7002D30B0000921E1292030FE
:1003C000B0000C2126080F390319E9292608072156
:1003D000ED29270E0F390319EF29270E07212708CA
:1003E000072120308E210800B401B501B6012E0886
:1003F000B700B713AE1F072A3708B701B703B70214
:1004000037087F39B7002D30B0000921082A203085
:100410000C2126080F390319102A26080721142A4F
:10042000270E0F390319162A270E0721270807213F
:100430000310AF0CAF0CAF0CAF0CAF0C2F08AE1FFE
:10044000282A2F08AF01AF03AF022F080739AF00EA
:1004500007302F020319522A06302F020319502A9F
:1004600005302F0203194E2A04302F0203194C2A9B
:1004700003302F0203194A2A02302F020319482A97
:1004800001302F020319462A0D30FE281330FE28B2
:100490001930FE281F30FE282530FE282B30FE287C
:1004A0003130FE283730FE282023000000003C2396
:1004B0003108E6220030E622DD223C2331080138F3
:1004C000E6220A23AE00CA22AF00DD2208003C2348
:1004D0003108E6220130E6220130E6220000000069
:1004E00000000000DD2208003C233108E622013034
:1004F000E6220430E6220000000000000000DD22B9
:1005000008002023000000003C233108E6220330CD
:10051000E6224208E6220030E622DD223C233108B2
:10052000E6220230E6224308E6220030E622DD22FF
:1005300008000000000000000000000000000000B3
:1005400000000800B2000830B3008316051199229C
:10055000851083120511B20D031805159922851413
:1005600099228510B30BAA2A0800B2010830B30003
:100570008316051583129922031005190314B20D71
:10058000851499228510B30BBB2A320883160511F6
:1005900083120800B52283160511831205159922CE
:1005A0008514831685148312851CD42A831685101E
:1005B00083128510992205110800831605119922CE
:1005C000851083128514992205150800A2220515AD
:1005D00099228514831685148312851CED2A8316AF
:1005E000851083128510992205110800A222051199
:1005F0009922851099220511992285148316851454
:100600008312851C012B8316851083128510992275
:1006100005110800B5228316051199228510831251
:100620000511992285149922831685148312851C3D
:10063000172B831685108312851099220511080047
:100640008316051500008510831285140930B20049
:100650009922851099228514B20B282B99223C23CC
:1006600099228514992285109922DD22831605117D
:1006700000008510831208008316051500008514FC
:100680008312851C3C2B051D3C2B831605119922DA
:1006900085108312051199228510080083169B008E
:1006A0001C141A088312080083169A001C15553072
:1006B0009D00AA309D009C149C185C2B831208009E
:0207FE004B347A
:02400E00CC3FA5
:104200001C0002000300040005000600070008006F
:10421000FF001C0002000300040005000600070068
:044220000800FF0093
:00000001FF
