:020000040000FA
:0600000064008B014A2898
:08000800052809008200000038
:1000100008002E343534203400342E34303420346B
:100020002034203400342E3431343234353420340A
:1000300000342E34323435342034203400342E341D
:10004000333437343534203400342E3435342034CE
:100050002034203400342E343634323435342034D5
:1000600000342E34373435342034203400342E34E8
:1000700038343734353420340034743468346534DB
:1000800072346D346F346D34653474346534723465
:1000900020340034073099003221850185169030D4
:1000A000B100732292309230B1007322F2200030FE
:1000B0004D23C20009304D23C3009030B10080228F
:1000C00001304D23C2000A304D23C3009230B100ED
:1000D00080224521640064009030B1005322F32156
:1000E000640000304D23C200C92109304D23C300F4
:1000F000BE219230B1005322F321640001304D2320
:10010000C200C9210A304D23C300BE21C3204130A3
:100110008D214508E42042308D214608E420C508A1
:10012000031DBB20C608031D9D2045216B28C83038
:10013000BE005521BE0B99286B2841308D2100301F
:100140004D23C200C21BA628C203AE28FF3AC2003C
:10015000C20AC20A4208FF3AC200C20A003083162D
:100160009B00831242085323093083169B0083129D
:1001700042085323080042308D2100304D23C20035
:10018000C20AAE2808008316051283120512F22057
:10019000831605168312D6208316051283120516C0
:1001A000F220831605168312DD200800C501C50F55
:1001B000DA28DC28051ED7280800C601C60FE1286A
:1001C000E328051ADE280800B401B501B601B7001E
:1001D0000B21260E062126080621270E06212708B8
:1001E000062108001E30BC004F30BD00BC0BF928B2
:1001F000BD0BF628FB2800000800AC002C080620E8
:10020000FF39031908280821AC0AFE280F39303EAF
:10021000AB008D2100342030A800A001A101A20173
:10022000A301A401A501A601A70120308400083084
:10023000A900333080078019F039801B0F39800204
:10024000840AA90B1929B70DB60DB50DB40DA70D6C
:10025000A60DA50DA40DA30DA20DA10DA00DA80B1B
:100260001529080083160030810081140000011553
:100270000000011400008115FF239000851200008A
:10028000951200001512831208000D308D210A30DE
:100290008D290D308D29B800380E4F2138080F39BF
:1002A000F63E031C5429073E3A3EA530BC000130FF
:1002B000BD00BC0B5C29BD0B592908001F30BC00D8
:1002C0008516000000000000000000000000000093
:1002D0000000000000000000851200000000000087
:1002E000000000000000000000000000000000000E
:1002F000BC0B602985160000000000000000000013
:100300000000000000000000000000008512000056
:1003100000000000000000000800B9000830BA002A
:100320003B103B1855213B1C5E21B90C03189A2940
:100330003B109B293B14BA0B91293B1855213B1CC0
:100340005E21552155210800BF0085120830C000EC
:10035000B5213F1885163F1C8512BF0CB521C00B77
:10036000A9298516B521B52108004130C100BB2956
:100370001830C100BB29C10BBB29080048308D21B2
:10038000B401B501B6014308B700B713C31FDE2996
:10039000D32954308D21B401B501B6014208B7000C
:1003A000B713C21FDE293708B701B703B7023708F2
:1003B0007F39B7002D30B0000821E0292030B0008F
:1003C0000B2126080F390319E82926080621EC29F4
:1003D000270E0F390319EE29270E062127080621BB
:1003E00020308D210800B401B501B6012E08B700F8
:1003F000B713AE1F062A3708B701B703B70237088D
:100400007F39B7002D30B0000821072A20300B219A
:1004100026080F3903190F2A26080621132A270E4A
:100420000F390319152A270E062127080621031064
:10043000AF0CAF0CAF0CAF0CAF0C2F08AE1F272AC0
:100440002F08AF01AF03AF022F080739AF00073005
:100450002F020319512A06302F0203194F2A0530A3
:100460002F0203194D2A04302F0203194B2A03309F
:100470002F020319492A02302F020319472A01309B
:100480002F020319452A0D30FD281330FD2819309D
:10049000FD281F30FD282530FD282B30FD28313068
:1004A000FD283730FD281F23000000003B233108C2
:1004B000E5220030E522DC223B2331080138E52229
:1004C0000923AE00C922AF00DC2208003B2331081B
:1004D000E5220130E5220130E522000000000000A5
:1004E0000000DC2208003B233108E5220130E52230
:1004F0000430E5220000000000000000DC220800BB
:100500001F23000000003B233108E5220330E522D1
:100510004208E5220030E522DC223B233108E522B7
:100520000230E5224308E5220030E522DC22080003
:1005300000000000000000000000000000000000BB
:100540000800B2000830B300831605119822851008
:1005500083120511B20D03180515982285149822EF
:100560008510B30BA92A0800B2010830B300831626
:10057000051583129822031005190314B20D851472
:1005800098228510B30BBA2A3208831605118312FC
:100590000800B422831605118312051598228514CC
:1005A000831685148312851CD32A83168510831223
:1005B00085109822051108008316051198228510D0
:1005C00083128514982205150800A122051598228A
:1005D0008514831685148312851CEC2A83168510D6
:1005E00083128510982205110800A1220511982276
:1005F000851098220511982285148316851483127C
:10060000851C002B831685108312851098220511F6
:100610000800B42283160511982285108312051153
:10062000982285149822831685148312851C162B14
:1006300083168510831285109822051108008316F1
:10064000051500008510831285140930B200982228
:10065000851098228514B20B272B98223B239822D1
:100660008514982285109822DC228316051100003B
:100670008510831208008316051500008514831267
:10068000851C3B2B051D3B2B8316051198228510DD
:100690008312051198228510080083169B001C14F4
:1006A0001A088312080083169A001C1555309D0005
:0E06B000AA309D009C149C185B2B831208003E
:0207FE004B347A
:02400E00CC3FA5
:104200001C0002000300040005000600070008006F
:10421000FF001C0002000300040005000600070068
:044220000800FF0093
:00000001FF
